{
  "contractName": "ProducerRole",
  "abi": [
    {
      "inputs": [],
      "stateMutability": "nonpayable",
      "type": "constructor"
    },
    {
      "anonymous": false,
      "inputs": [
        {
          "indexed": true,
          "internalType": "address",
          "name": "account",
          "type": "address"
        }
      ],
      "name": "ProducerAdded",
      "type": "event"
    },
    {
      "anonymous": false,
      "inputs": [
        {
          "indexed": true,
          "internalType": "address",
          "name": "account",
          "type": "address"
        }
      ],
      "name": "ProducerRemoved",
      "type": "event"
    },
    {
      "inputs": [
        {
          "internalType": "address",
          "name": "account",
          "type": "address"
        }
      ],
      "name": "isProducer",
      "outputs": [
        {
          "internalType": "bool",
          "name": "",
          "type": "bool"
        }
      ],
      "stateMutability": "view",
      "type": "function",
      "constant": true
    },
    {
      "inputs": [
        {
          "internalType": "address",
          "name": "account",
          "type": "address"
        }
      ],
      "name": "addProducer",
      "outputs": [],
      "stateMutability": "nonpayable",
      "type": "function"
    },
    {
      "inputs": [],
      "name": "renounceProducer",
      "outputs": [],
      "stateMutability": "nonpayable",
      "type": "function"
    }
  ],
  "bytecode": "0x608060405234801561001057600080fd5b506100203361002560201b60201c565b6101c5565b61003d81600061008360201b6100e21790919060201c565b8073ffffffffffffffffffffffffffffffffffffffff167f2977383b0207d39ef14220620b6cf3e6c9b6e78592af90baeef6614ed2fcd2c660405160405180910390a250565b600073ffffffffffffffffffffffffffffffffffffffff168173ffffffffffffffffffffffffffffffffffffffff16036100bc57600080fd5b6100cc828261013460201b60201c565b156100d657600080fd5b60018260000160008373ffffffffffffffffffffffffffffffffffffffff1673ffffffffffffffffffffffffffffffffffffffff16815260200190815260200160002060006101000a81548160ff0219169083151502179055505050565b60008073ffffffffffffffffffffffffffffffffffffffff168273ffffffffffffffffffffffffffffffffffffffff160361016e57600080fd5b8260000160008373ffffffffffffffffffffffffffffffffffffffff1673ffffffffffffffffffffffffffffffffffffffff16815260200190815260200160002060009054906101000a900460ff16905092915050565b610478806101d46000396000f3fe608060405234801561001057600080fd5b50600436106100415760003560e01c8063ddf8016614610046578063f552102214610062578063f9b867d814610092575b600080fd5b610060600480360381019061005b91906103df565b61009c565b005b61007c600480360381019061007791906103df565b6100ba565b6040516100899190610427565b60405180910390f35b61009a6100d7565b005b6100a5336100ba565b6100ae57600080fd5b6100b78161018d565b50565b60006100d08260006101e790919063ffffffff16565b9050919050565b6100e033610278565b565b600073ffffffffffffffffffffffffffffffffffffffff168173ffffffffffffffffffffffffffffffffffffffff160361011b57600080fd5b61012582826101e7565b1561012f57600080fd5b60018260000160008373ffffffffffffffffffffffffffffffffffffffff1673ffffffffffffffffffffffffffffffffffffffff16815260200190815260200160002060006101000a81548160ff0219169083151502179055505050565b6101a18160006100e290919063ffffffff16565b8073ffffffffffffffffffffffffffffffffffffffff167f2977383b0207d39ef14220620b6cf3e6c9b6e78592af90baeef6614ed2fcd2c660405160405180910390a250565b60008073ffffffffffffffffffffffffffffffffffffffff168273ffffffffffffffffffffffffffffffffffffffff160361022157600080fd5b8260000160008373ffffffffffffffffffffffffffffffffffffffff1673ffffffffffffffffffffffffffffffffffffffff16815260200190815260200160002060009054906101000a900460ff16905092915050565b61028c8160006102d290919063ffffffff16565b8073ffffffffffffffffffffffffffffffffffffffff167fb78e9906c5bae930ccf756a5214c9855b1782f0eb30f9566de2384f034af48f360405160405180910390a250565b600073ffffffffffffffffffffffffffffffffffffffff168173ffffffffffffffffffffffffffffffffffffffff160361030b57600080fd5b61031582826101e7565b61031e57600080fd5b60008260000160008373ffffffffffffffffffffffffffffffffffffffff1673ffffffffffffffffffffffffffffffffffffffff16815260200190815260200160002060006101000a81548160ff0219169083151502179055505050565b600080fd5b600073ffffffffffffffffffffffffffffffffffffffff82169050919050565b60006103ac82610381565b9050919050565b6103bc816103a1565b81146103c757600080fd5b50565b6000813590506103d9816103b3565b92915050565b6000602082840312156103f5576103f461037c565b5b6000610403848285016103ca565b91505092915050565b60008115159050919050565b6104218161040c565b82525050565b600060208201905061043c6000830184610418565b9291505056fea26469706673582212203469d123c7ba429d11b0197466a85bb9a0328f55447054c4cccc8fcee389480f64736f6c634300080e0033",
  "immutableReferences": {},
  "source": "// SPDX-License-Identifier: MIT\npragma solidity >=0.4.22 <0.9.0;\n\nimport \"./Roles.sol\";\n\ncontract ProducerRole {\n    /** using is used for including a library within a contract in solidity */\n    using Roles for Roles.Role;\n\n    // Define 2 events, one for Adding, and other for Removing\n    event ProducerAdded(address indexed account);\n    event ProducerRemoved(address indexed account);\n\n    // Define a struct 'producers' by inheriting from 'Roles' library, struct Role\n    Roles.Role private producers;\n\n    constructor() {\n        _addProducer(msg.sender);\n    }\n\n    // Define a modifier that checks to see if msg.sender has the appropriate role\n    modifier onlyProducer() {\n        require(isProducer(msg.sender));\n        _;\n    }\n\n    // Define a function 'isFarmer' to check this role\n    function isProducer(address account) public view returns (bool) {\n        return producers.has(account);\n    }\n\n    // Define a function 'addFarmer' that adds this role\n    function addProducer(address account) public onlyProducer {\n        _addProducer(account);\n    }\n\n    // Define a function 'renounceFarmer' to renounce this role\n    function renounceProducer() public {\n        _removeProducer(msg.sender);\n    }\n\n    // Define an internal function '_addProducer' to add this role, called by 'addFarmer'\n    function _addProducer(address account) internal {\n        producers.add(account);\n        emit ProducerAdded(account);\n    }\n\n      // Define an internal function '_removeProducer' to remove this role, called by 'renounceProducer'\n    function _removeProducer(address account) internal {\n        producers.remove(account);\n        emit ProducerRemoved(account);\n    }\n}\n",
  "sourcePath": "/Users/juani/code/courses/udacity_blockchain_developer/supply-chain/final_project/final_project_supply_chain/contracts/access-control/ProducerRol.sol",
  "compiler": {
    "name": "solc",
    "version": "0.8.14+commit.80d49f37.Emscripten.clang"
  },
  "schemaVersion": "3.4.7",
  "updatedAt": "2022-07-12T19:05:31.633Z",
  "networkType": "ethereum",
  "devdoc": {
    "kind": "dev",
    "methods": {},
    "version": 1
  },
  "userdoc": {
    "kind": "user",
    "methods": {},
    "version": 1
  }
}